{
  "contractName": "ucodeRegistrar",
  "abi": [
    {
      "constant": true,
      "inputs": [],
      "name": "incrTLDc",
      "outputs": [
        {
          "name": "",
          "type": "uint16"
        }
      ],
      "payable": false,
      "stateMutability": "view",
      "type": "function"
    },
    {
      "constant": true,
      "inputs": [],
      "name": "contrOwner",
      "outputs": [
        {
          "name": "",
          "type": "address"
        }
      ],
      "payable": false,
      "stateMutability": "view",
      "type": "function"
    },
    {
      "constant": true,
      "inputs": [],
      "name": "preTLDc",
      "outputs": [
        {
          "name": "",
          "type": "uint16"
        }
      ],
      "payable": false,
      "stateMutability": "view",
      "type": "function"
    },
    {
      "constant": true,
      "inputs": [
        {
          "name": "",
          "type": "uint80"
        }
      ],
      "name": "record",
      "outputs": [
        {
          "name": "owner",
          "type": "address"
        },
        {
          "name": "timestamp",
          "type": "uint64"
        }
      ],
      "payable": false,
      "stateMutability": "view",
      "type": "function"
    },
    {
      "constant": true,
      "inputs": [
        {
          "name": "",
          "type": "address"
        }
      ],
      "name": "user",
      "outputs": [
        {
          "name": "balance",
          "type": "uint256"
        },
        {
          "name": "lockedBalance",
          "type": "uint256"
        },
        {
          "name": "hash",
          "type": "bytes32"
        },
        {
          "name": "blockHeight",
          "type": "uint64"
        }
      ],
      "payable": false,
      "stateMutability": "view",
      "type": "function"
    },
    {
      "constant": true,
      "inputs": [],
      "name": "incrSLDc",
      "outputs": [
        {
          "name": "",
          "type": "uint56"
        }
      ],
      "payable": false,
      "stateMutability": "view",
      "type": "function"
    },
    {
      "constant": true,
      "inputs": [],
      "name": "preOrderN",
      "outputs": [
        {
          "name": "",
          "type": "uint64"
        }
      ],
      "payable": false,
      "stateMutability": "view",
      "type": "function"
    },
    {
      "inputs": [],
      "payable": false,
      "stateMutability": "nonpayable",
      "type": "constructor"
    },
    {
      "anonymous": false,
      "inputs": [
        {
          "indexed": false,
          "name": "key",
          "type": "uint80"
        },
        {
          "indexed": false,
          "name": "owner",
          "type": "address"
        }
      ],
      "name": "NewOwner",
      "type": "event"
    },
    {
      "anonymous": false,
      "inputs": [
        {
          "indexed": false,
          "name": "key",
          "type": "uint80"
        },
        {
          "indexed": false,
          "name": "owner",
          "type": "address"
        }
      ],
      "name": "TransferRight",
      "type": "event"
    },
    {
      "constant": false,
      "inputs": [],
      "name": "deposit",
      "outputs": [
        {
          "name": "",
          "type": "bool"
        }
      ],
      "payable": true,
      "stateMutability": "payable",
      "type": "function"
    },
    {
      "constant": false,
      "inputs": [
        {
          "name": "_to",
          "type": "address"
        },
        {
          "name": "_money",
          "type": "uint256"
        }
      ],
      "name": "payExcute",
      "outputs": [
        {
          "name": "",
          "type": "bool"
        }
      ],
      "payable": false,
      "stateMutability": "nonpayable",
      "type": "function"
    },
    {
      "constant": false,
      "inputs": [
        {
          "name": "_money",
          "type": "uint256"
        }
      ],
      "name": "withdraw",
      "outputs": [
        {
          "name": "",
          "type": "bool"
        }
      ],
      "payable": false,
      "stateMutability": "nonpayable",
      "type": "function"
    },
    {
      "constant": false,
      "inputs": [
        {
          "name": "_addr",
          "type": "address"
        },
        {
          "name": "_type",
          "type": "uint8"
        }
      ],
      "name": "getBalance",
      "outputs": [
        {
          "name": "",
          "type": "uint256"
        }
      ],
      "payable": false,
      "stateMutability": "nonpayable",
      "type": "function"
    },
    {
      "constant": false,
      "inputs": [],
      "name": "incrReg",
      "outputs": [
        {
          "name": "",
          "type": "bool"
        }
      ],
      "payable": false,
      "stateMutability": "nonpayable",
      "type": "function"
    },
    {
      "constant": false,
      "inputs": [
        {
          "name": "_hash",
          "type": "bytes32"
        }
      ],
      "name": "preOrderReg1",
      "outputs": [
        {
          "name": "",
          "type": "bool"
        }
      ],
      "payable": false,
      "stateMutability": "nonpayable",
      "type": "function"
    },
    {
      "constant": false,
      "inputs": [
        {
          "name": "_key",
          "type": "uint80"
        },
        {
          "name": "_nonce",
          "type": "uint64"
        }
      ],
      "name": "preOrderReg2",
      "outputs": [
        {
          "name": "",
          "type": "bool"
        }
      ],
      "payable": false,
      "stateMutability": "nonpayable",
      "type": "function"
    },
    {
      "constant": false,
      "inputs": [
        {
          "name": "_key",
          "type": "uint80"
        }
      ],
      "name": "revokeSLD",
      "outputs": [
        {
          "name": "",
          "type": "bool"
        }
      ],
      "payable": false,
      "stateMutability": "nonpayable",
      "type": "function"
    },
    {
      "constant": false,
      "inputs": [
        {
          "name": "_key",
          "type": "uint80"
        },
        {
          "name": "_validTime",
          "type": "uint64"
        },
        {
          "name": "_to",
          "type": "address"
        },
        {
          "name": "_v",
          "type": "uint8"
        },
        {
          "name": "_r",
          "type": "bytes32"
        },
        {
          "name": "_s",
          "type": "bytes32"
        }
      ],
      "name": "changeOwner",
      "outputs": [
        {
          "name": "",
          "type": "bool"
        }
      ],
      "payable": false,
      "stateMutability": "nonpayable",
      "type": "function"
    },
    {
      "constant": false,
      "inputs": [
        {
          "name": "_key",
          "type": "uint80"
        }
      ],
      "name": "getAddr",
      "outputs": [
        {
          "name": "",
          "type": "address"
        }
      ],
      "payable": false,
      "stateMutability": "nonpayable",
      "type": "function"
    },
    {
      "constant": false,
      "inputs": [
        {
          "name": "_key",
          "type": "uint80"
        }
      ],
      "name": "getTimestamp",
      "outputs": [
        {
          "name": "",
          "type": "uint64"
        }
      ],
      "payable": false,
      "stateMutability": "nonpayable",
      "type": "function"
    },
    {
      "constant": false,
      "inputs": [
        {
          "name": "_key",
          "type": "address"
        }
      ],
      "name": "getPreOrderHash",
      "outputs": [
        {
          "name": "",
          "type": "uint256"
        }
      ],
      "payable": false,
      "stateMutability": "nonpayable",
      "type": "function"
    },
    {
      "constant": false,
      "inputs": [
        {
          "name": "_key",
          "type": "address"
        }
      ],
      "name": "getPreOrderBlockHeight",
      "outputs": [
        {
          "name": "",
          "type": "uint64"
        }
      ],
      "payable": false,
      "stateMutability": "nonpayable",
      "type": "function"
    }
  ],
  "bytecode": "0x6080604052336000806101000a81548173ffffffffffffffffffffffffffffffffffffffff021916908373ffffffffffffffffffffffffffffffffffffffff16021790555034801561005057600080fd5b50611000600360006101000a81548161ffff021916908361ffff1602179055506001600360026101000a81548166ffffffffffffff021916908366ffffffffffffff160217905550611100600360096101000a81548161ffff021916908361ffff160217905550600380600b6101000a81548167ffffffffffffffff021916908367ffffffffffffffff160217905550612020806100ef6000396000f300608060405260043610610112576000357c0100000000000000000000000000000000000000000000000000000000900463ffffffff16806307b1d3ec1461011757806309472c231461017c57806315d71bc6146101af5780631b80a7a4146101de5780632017bc1f146102435780632e1a7d4d1461029a5780633e72a469146102df578063420c8f191461034357806342c075bb1461039a5780635d9ef1ec146103cd578063814365d31461044657806381e7e20e146104da5780638a327eed146105625780638c0db1641461059f578063a65f6d8d146105f0578063aae0966e14610639578063b8e0cbe414610678578063d0e30db0146106e3578063f35bfacd14610705578063fa59fe3114610766575b600080fd5b34801561012357600080fd5b50610162600480360381019080803569ffffffffffffffffffff169060200190929190803567ffffffffffffffff169060200190929190505050610814565b604051808215151515815260200191505060405180910390f35b34801561018857600080fd5b50610191610d12565b604051808261ffff1661ffff16815260200191505060405180910390f35b3480156101bb57600080fd5b506101c4610d26565b604051808215151515815260200191505060405180910390f35b3480156101ea57600080fd5b50610229600480360381019080803573ffffffffffffffffffffffffffffffffffffffff16906020019092919080359060200190929190505050611064565b604051808215151515815260200191505060405180910390f35b34801561024f57600080fd5b50610258611202565b604051808273ffffffffffffffffffffffffffffffffffffffff1673ffffffffffffffffffffffffffffffffffffffff16815260200191505060405180910390f35b3480156102a657600080fd5b506102c560048036038101908080359060200190929190505050611227565b604051808215151515815260200191505060405180910390f35b3480156102eb57600080fd5b5061032d600480360381019080803573ffffffffffffffffffffffffffffffffffffffff169060200190929190803560ff169060200190929190505050611325565b6040518082815260200191505060405180910390f35b34801561034f57600080fd5b50610384600480360381019080803573ffffffffffffffffffffffffffffffffffffffff1690602001909291905050506113de565b6040518082815260200191505060405180910390f35b3480156103a657600080fd5b506103af61142e565b604051808261ffff1661ffff16815260200191505060405180910390f35b3480156103d957600080fd5b50610404600480360381019080803569ffffffffffffffffffff169060200190929190505050611442565b604051808273ffffffffffffffffffffffffffffffffffffffff1673ffffffffffffffffffffffffffffffffffffffff16815260200191505060405180910390f35b34801561045257600080fd5b5061047d600480360381019080803569ffffffffffffffffffff16906020019092919050505061149a565b604051808373ffffffffffffffffffffffffffffffffffffffff1673ffffffffffffffffffffffffffffffffffffffff1681526020018267ffffffffffffffff1667ffffffffffffffff1681526020019250505060405180910390f35b3480156104e657600080fd5b5061051b600480360381019080803573ffffffffffffffffffffffffffffffffffffffff1690602001909291905050506114f2565b6040518085815260200184815260200183600019166000191681526020018267ffffffffffffffff1667ffffffffffffffff16815260200194505050505060405180910390f35b34801561056e57600080fd5b50610577611536565b604051808266ffffffffffffff1666ffffffffffffff16815260200191505060405180910390f35b3480156105ab57600080fd5b506105d6600480360381019080803569ffffffffffffffffffff16906020019092919050505061154f565b604051808215151515815260200191505060405180910390f35b3480156105fc57600080fd5b5061061f60048036038101908080356000191690602001909291905050506117a4565b604051808215151515815260200191505060405180910390f35b34801561064557600080fd5b5061064e611863565b604051808267ffffffffffffffff1667ffffffffffffffff16815260200191505060405180910390f35b34801561068457600080fd5b506106b9600480360381019080803573ffffffffffffffffffffffffffffffffffffffff16906020019092919050505061187d565b604051808267ffffffffffffffff1667ffffffffffffffff16815260200191505060405180910390f35b6106eb6118dd565b604051808215151515815260200191505060405180910390f35b34801561071157600080fd5b5061073c600480360381019080803569ffffffffffffffffffff1690602001909291905050506119d9565b604051808267ffffffffffffffff1667ffffffffffffffff16815260200191505060405180910390f35b34801561077257600080fd5b506107fa600480360381019080803569ffffffffffffffffffff169060200190929190803567ffffffffffffffff169060200190929190803573ffffffffffffffffffffffffffffffffffffffff169060200190929190803560ff16906020019092919080356000191690602001909291908035600019169060200190929190505050611a25565b604051808215151515815260200191505060405180910390f35b600080600080600080604c8869ffffffffffffffffffff169060020a90049450603c8869ffffffffffffffffffff169060020a900493506004600f851660ff169060020a0260388969ffffffffffffffffffff169060020a90040392508791508787604051808369ffffffffffffffffffff1669ffffffffffffffffffff16760100000000000000000000000000000000000000000000028152600a018267ffffffffffffffff1667ffffffffffffffff167801000000000000000000000000000000000000000000000000028152600801925050506040518091039020905060008560ff16141515801561091e57506110008461ffff16148061091d57506111008461ffff16145b5b801561092f5750600c8360ff161415155b801561098957506000600260008a69ffffffffffffffffffff1669ffffffffffffffffffff16815260200190815260200160002060000160149054906101000a900467ffffffffffffffff1667ffffffffffffffff161415155b80156109e057508060001916600160003373ffffffffffffffffffffffffffffffffffffffff1673ffffffffffffffffffffffffffffffffffffffff16815260200190815260200160002060020154600019161415155b8015610a645750436003600b9054906101000a900467ffffffffffffffff16600160003373ffffffffffffffffffffffffffffffffffffffff1673ffffffffffffffffffffffffffffffffffffffff16815260200190815260200160002060030160009054906101000a900467ffffffffffffffff160167ffffffffffffffff1611155b8015610ab95750662386f26fc10000600160003373ffffffffffffffffffffffffffffffffffffffff1673ffffffffffffffffffffffffffffffffffffffff1681526020019081526020016000206000015410155b15610d02576110008461ffff161415610b0657600360029054906101000a900466ffffffffffffff1666ffffffffffffff168266ffffffffffffff16101515610b055760009550610d07565b5b662386f26fc10000600160003373ffffffffffffffffffffffffffffffffffffffff1673ffffffffffffffffffffffffffffffffffffffff16815260200190815260200160002060000160008282540392505081905550662386f26fc10000600160003373ffffffffffffffffffffffffffffffffffffffff1673ffffffffffffffffffffffffffffffffffffffff1681526020019081526020016000206001016000828254019250508190555033600260008a69ffffffffffffffffffff1669ffffffffffffffffffff16815260200190815260200160002060000160006101000a81548173ffffffffffffffffffffffffffffffffffffffff021916908373ffffffffffffffffffffffffffffffffffffffff16021790555042600260008a69ffffffffffffffffffff1669ffffffffffffffffffff16815260200190815260200160002060000160146101000a81548167ffffffffffffffff021916908367ffffffffffffffff1602179055507f634038d8fdb41090e18f61e0d0fadf42436f29a00e3b380c3cdfd0c90acca7198833604051808369ffffffffffffffffffff1669ffffffffffffffffffff1681526020018273ffffffffffffffffffffffffffffffffffffffff1673ffffffffffffffffffffffffffffffffffffffff1681526020019250505060405180910390a160019550610d07565b600095505b505050505092915050565b600360009054906101000a900461ffff1681565b6000806000600c6004600360009054906101000a900461ffff1661ffff1662ffffff169060020a0262ffffff16019150600360029054906101000a900466ffffffffffffff1666ffffffffffffff1660388362ffffff1669ffffffffffffffffffff169060020a0201905066ffffffffffffff8016600360029054906101000a900466ffffffffffffff1666ffffffffffffff1666ffffffffffffff16108015610e195750662386f26fc10000600160003373ffffffffffffffffffffffffffffffffffffffff1673ffffffffffffffffffffffffffffffffffffffff1681526020019081526020016000206000015410155b1561105a57662386f26fc10000600160003373ffffffffffffffffffffffffffffffffffffffff1673ffffffffffffffffffffffffffffffffffffffff16815260200190815260200160002060000160008282540392505081905550662386f26fc10000600160003373ffffffffffffffffffffffffffffffffffffffff1673ffffffffffffffffffffffffffffffffffffffff1681526020019081526020016000206001016000828254019250508190555033600260008369ffffffffffffffffffff1669ffffffffffffffffffff16815260200190815260200160002060000160006101000a81548173ffffffffffffffffffffffffffffffffffffffff021916908373ffffffffffffffffffffffffffffffffffffffff16021790555042600260008369ffffffffffffffffffff1669ffffffffffffffffffff16815260200190815260200160002060000160146101000a81548167ffffffffffffffff021916908367ffffffffffffffff1602179055506001600360028282829054906101000a900466ffffffffffffff160192506101000a81548166ffffffffffffff021916908366ffffffffffffff1602179055507f634038d8fdb41090e18f61e0d0fadf42436f29a00e3b380c3cdfd0c90acca7198133604051808369ffffffffffffffffffff1669ffffffffffffffffffff1681526020018273ffffffffffffffffffffffffffffffffffffffff1673ffffffffffffffffffffffffffffffffffffffff1681526020019250505060405180910390a16001925061105f565b600092505b505090565b600081600160003373ffffffffffffffffffffffffffffffffffffffff1673ffffffffffffffffffffffffffffffffffffffff16815260200190815260200160002060000154101580156110b85750600082115b80156111495750600160008473ffffffffffffffffffffffffffffffffffffffff1673ffffffffffffffffffffffffffffffffffffffff1681526020019081526020016000206000015482600160008673ffffffffffffffffffffffffffffffffffffffff1673ffffffffffffffffffffffffffffffffffffffff1681526020019081526020016000206000015401115b156111f75781600160003373ffffffffffffffffffffffffffffffffffffffff1673ffffffffffffffffffffffffffffffffffffffff1681526020019081526020016000206000016000828254039250508190555081600160008573ffffffffffffffffffffffffffffffffffffffff1673ffffffffffffffffffffffffffffffffffffffff16815260200190815260200160002060000160008282540192505081905550600190506111fc565b600090505b92915050565b6000809054906101000a900473ffffffffffffffffffffffffffffffffffffffff1681565b6000600160003373ffffffffffffffffffffffffffffffffffffffff1673ffffffffffffffffffffffffffffffffffffffff16815260200190815260200160002060000154821115801561127b5750600082115b1561131b573373ffffffffffffffffffffffffffffffffffffffff166108fc839081150290604051600060405180830381858888f19350505050151560011515141561131a5781600160003373ffffffffffffffffffffffffffffffffffffffff1673ffffffffffffffffffffffffffffffffffffffff1681526020019081526020016000206000016000828254039250508190555060019050611320565b5b600090505b919050565b600060018260ff16141561137d57600160008473ffffffffffffffffffffffffffffffffffffffff1673ffffffffffffffffffffffffffffffffffffffff1681526020019081526020016000206000015490506113d8565b60028260ff1614156113d357600160008473ffffffffffffffffffffffffffffffffffffffff1673ffffffffffffffffffffffffffffffffffffffff1681526020019081526020016000206001015490506113d8565b600090505b92915050565b6000600160008373ffffffffffffffffffffffffffffffffffffffff1673ffffffffffffffffffffffffffffffffffffffff16815260200190815260200160002060020154600190049050919050565b600360099054906101000a900461ffff1681565b6000600260008369ffffffffffffffffffff1669ffffffffffffffffffff16815260200190815260200160002060000160009054906101000a900473ffffffffffffffffffffffffffffffffffffffff169050919050565b60026020528060005260406000206000915090508060000160009054906101000a900473ffffffffffffffffffffffffffffffffffffffff16908060000160149054906101000a900467ffffffffffffffff16905082565b60016020528060005260406000206000915090508060000154908060010154908060020154908060030160009054906101000a900467ffffffffffffffff16905084565b600360029054906101000a900466ffffffffffffff1681565b60003373ffffffffffffffffffffffffffffffffffffffff16600260008469ffffffffffffffffffff1669ffffffffffffffffffff16815260200190815260200160002060000160009054906101000a900473ffffffffffffffffffffffffffffffffffffffff1673ffffffffffffffffffffffffffffffffffffffff16141515801561162957506000600260008469ffffffffffffffffffff1669ffffffffffffffffffff16815260200190815260200160002060000160149054906101000a900467ffffffffffffffff1667ffffffffffffffff1614155b801561168857506301e13380600260008469ffffffffffffffffffff1669ffffffffffffffffffff16815260200190815260200160002060000160149054906101000a900467ffffffffffffffff160167ffffffffffffffff16421115155b1561179a576000600260008469ffffffffffffffffffff1669ffffffffffffffffffff16815260200190815260200160002060000160146101000a81548167ffffffffffffffff021916908367ffffffffffffffff160217905550662386f26fc10000600160003373ffffffffffffffffffffffffffffffffffffffff1673ffffffffffffffffffffffffffffffffffffffff16815260200190815260200160002060010160008282540392505081905550662386f26fc10000600160003373ffffffffffffffffffffffffffffffffffffffff1673ffffffffffffffffffffffffffffffffffffffff168152602001908152602001600020600001600082825401925050819055506001905061179f565b600090505b919050565b600081600160003373ffffffffffffffffffffffffffffffffffffffff1673ffffffffffffffffffffffffffffffffffffffff168152602001908152602001600020600201816000191690555043600160003373ffffffffffffffffffffffffffffffffffffffff1673ffffffffffffffffffffffffffffffffffffffff16815260200190815260200160002060030160006101000a81548167ffffffffffffffff021916908367ffffffffffffffff16021790555060019050919050565b6003600b9054906101000a900467ffffffffffffffff1681565b6000600160008373ffffffffffffffffffffffffffffffffffffffff1673ffffffffffffffffffffffffffffffffffffffff16815260200190815260200160002060030160009054906101000a900467ffffffffffffffff169050919050565b600080341180156119735750600160003373ffffffffffffffffffffffffffffffffffffffff1673ffffffffffffffffffffffffffffffffffffffff1681526020019081526020016000206000015434600160003373ffffffffffffffffffffffffffffffffffffffff1673ffffffffffffffffffffffffffffffffffffffff1681526020019081526020016000206000015401115b156119d15734600160003373ffffffffffffffffffffffffffffffffffffffff1673ffffffffffffffffffffffffffffffffffffffff16815260200190815260200160002060000160008282540192505081905550600190506119d6565b600090505b90565b6000600260008369ffffffffffffffffffff1669ffffffffffffffffffff16815260200190815260200160002060000160149054906101000a900467ffffffffffffffff169050919050565b6000606060006040805190810160405280601c81526020017f19457468657265756d205369676e6564204d6573736167653a0a3332000000008152509150818989604051808369ffffffffffffffffffff1669ffffffffffffffffffff16760100000000000000000000000000000000000000000000028152600a018267ffffffffffffffff1667ffffffffffffffff1678010000000000000000000000000000000000000000000000000281526008019250505060405180910390206040518083805190602001908083835b602083101515611b175780518252602082019150602081019050602083039250611af2565b6001836020036101000a038019825116818451168082178552505050505050905001826000191660001916815260200192505050604051809103902090506000600260008b69ffffffffffffffffffff1669ffffffffffffffffffff16815260200190815260200160002060000160149054906101000a900467ffffffffffffffff1667ffffffffffffffff1614158015611c2d57503373ffffffffffffffffffffffffffffffffffffffff16600260008b69ffffffffffffffffffff1669ffffffffffffffffffff16815260200190815260200160002060000160009054906101000a900473ffffffffffffffffffffffffffffffffffffffff1673ffffffffffffffffffffffffffffffffffffffff161415155b8015611ce657508673ffffffffffffffffffffffffffffffffffffffff16600182888888604051600081526020016040526040518085600019166000191681526020018460ff1660ff1681526020018360001916600019168152602001826000191660001916815260200194505050505060206040516020810390808403906000865af1158015611cc2573d6000803e3d6000fd5b5050506020604051035173ffffffffffffffffffffffffffffffffffffffff161415155b8015611cfc57508767ffffffffffffffff164211155b8015611d3457508673ffffffffffffffffffffffffffffffffffffffff163373ffffffffffffffffffffffffffffffffffffffff1614155b8015611d895750662386f26fc10000600160008973ffffffffffffffffffffffffffffffffffffffff1673ffffffffffffffffffffffffffffffffffffffff1681526020019081526020016000206000015410155b15611fe35786600260008b69ffffffffffffffffffff1669ffffffffffffffffffff16815260200190815260200160002060000160006101000a81548173ffffffffffffffffffffffffffffffffffffffff021916908373ffffffffffffffffffffffffffffffffffffffff160217905550662386f26fc10000600160003373ffffffffffffffffffffffffffffffffffffffff1673ffffffffffffffffffffffffffffffffffffffff16815260200190815260200160002060010160008282540392505081905550662386f26fc10000600160003373ffffffffffffffffffffffffffffffffffffffff1673ffffffffffffffffffffffffffffffffffffffff16815260200190815260200160002060000160008282540192505081905550662386f26fc10000600160008973ffffffffffffffffffffffffffffffffffffffff1673ffffffffffffffffffffffffffffffffffffffff16815260200190815260200160002060000160008282540392505081905550662386f26fc10000600160008973ffffffffffffffffffffffffffffffffffffffff1673ffffffffffffffffffffffffffffffffffffffff168152602001908152602001600020600101600082825401925050819055507f634038d8fdb41090e18f61e0d0fadf42436f29a00e3b380c3cdfd0c90acca7198988604051808369ffffffffffffffffffff1669ffffffffffffffffffff1681526020018273ffffffffffffffffffffffffffffffffffffffff1673ffffffffffffffffffffffffffffffffffffffff1681526020019250505060405180910390a160019250611fe8565b600092505b505096955050505050505600a165627a7a72305820115a96150579dc95cfd5283d532bad2267d785d4fcfdb832ed3eb24d99ef40bb0029",
  "source": "pragma solidity ^0.4.21;\ncontract ucodeRegistrar {\n  // contract owner\n  address public contrOwner = msg.sender; \n\n  // Token & Pre-Order Hash mapping\n  mapping (address => User) public user; \n  struct User {\n    uint256 balance; // deposit & locked balance\n    uint256 lockedBalance;\n    bytes32 hash; // for pre-order\n    uint64 blockHeight;\n  }\n\n  // ucode bulked mapping\n  mapping(uint80 => Record) public record; // version: 4bit, TLDc: 16bit, cc: 4bit, SLDc: 56bit (IC: 48bit)\n  struct Record { // CC: b'1100, ID Prefix data\n    address owner;\n    uint64 timestamp;\n  }\n\n  // incr and pre-order param\n  uint16 public incrTLDc; // [0x1000]\n  uint56 public incrSLDc;\n  uint16 public preTLDc; // [0x1100]\n  uint64 public preOrderN; // e.g. n = 100\n\n  // Events\n  event NewOwner(uint80 key, address owner);\n  event TransferRight(uint80 key, address owner);\n\n  // constructor \n  constructor(){\n    // incr parameter\n    incrTLDc = 0x1000; \n    incrSLDc = 1;\n    // pre-order pram\n    preTLDc  = 0x1100;\n    preOrderN = 3; // for Test\n  }\n\n  // deposit function\n  function deposit() payable public returns(bool){\n    if (msg.value > 0\n\t&& (user[msg.sender].balance + msg.value) > user[msg.sender].balance) {\n      user[msg.sender].balance += msg.value;\n      return true;\n    }\n    return false;\n  }\n  // pay token function \n  function payExcute(address _to, uint256 _money) public returns(bool){\n    if (user[msg.sender].balance >= _money\n        && _money > 0\n        && (user[_to].balance + _money) > user[_to].balance) {\n      user[msg.sender].balance -= _money;\n      user[_to].balance += _money;      \n      return true;\n    }\n    return false;\n  }\n  // withdraw eth\n  function withdraw(uint256 _money) public returns(bool){\n    if (_money <= user[msg.sender].balance\n        && _money > 0) {\n      if (true == msg.sender.send(_money)) {\n\tuser[msg.sender].balance -= _money;\n\treturn true;\n      }\n    }\n    return false;\n  }\n  // check account's balance\n  function getBalance(address _addr, uint8 _type) public returns(uint256){\n    if (_type == 1) {\n      return user[_addr].balance;\n    } else if (_type == 2) {\n      return user[_addr].lockedBalance;\n    } else {\n      return 0;\n    }\n  }\n\n  // increment reg\n  function incrReg() public returns(bool) {\n    // keyHead: 0x01000b, keyEnd: [0x0000000000_00_000000000000, 0xffffffffff_00_000000000000]\n    uint24 keyHead = ((uint24(0xffffff) & (uint24(incrTLDc)) << 4) + uint24(0xc));\n    uint80 key = (uint80(keyHead) << 56) + uint80(incrSLDc);\n\n    if ((uint56(0xffffffffffffff) & incrSLDc) < uint56(0xffffffffffffff) // always succeeding in this function without the case of issuing all IDs\n\t&& !(user[msg.sender].balance < 0.01 ether)) { // check insufficient deposit\n      // update database\n      user[msg.sender].balance       -= 0.01 ether;\n      user[msg.sender].lockedBalance += 0.01 ether;\n      record[key].owner      = msg.sender;\n      record[key].timestamp  = uint64(block.timestamp); // current block time\n      \n      // increment index and TLDc\n      incrSLDc += 1;\n      \n      emit NewOwner(key, msg.sender);\n      return true;\n    }\n    return false;\n  }\n  \n  // pre-order\n  function preOrderReg1(bytes32 _hash) public returns(bool){\n    user[msg.sender].hash = _hash;\n    user[msg.sender].blockHeight = uint64(block.number);\n    return true;\n  }\n  function preOrderReg2(uint80 _key, uint64 _nonce) public returns(bool){\n    uint8 version = uint8(_key >> 76); \n    uint16 TLDc = uint16(_key >> 60); \n    uint8 CC = uint8(_key >> 56) - ((uint8(TLDc) & 0x0f) << 4);\n    uint56 SLDc = uint56(_key);\n    bytes32 curHash = sha3(_key, _nonce);\n\n    if (!(version != 0)     // version Error\n\t&& (TLDc == 0x1000 ||  TLDc == 0x1100) // TLDc OK\n\t&& !(CC != 12)     // CC Error\n\t&& !(record[_key].timestamp != 0)     // this SLDc's ucode isn't revoked\n\t&& !(user[msg.sender].hash != curHash)     // don't match hash value\n\t&& !(user[msg.sender].blockHeight + preOrderN  > block.number)     // check the block height\n\t&& !(user[msg.sender].balance < 0.01 ether)) {    // check the deposit value\n      if (TLDc == 0x1000) {\n\tif (SLDc >= incrSLDc) { return false; }\n      }\n\t\n      // Issuing ID Space, Giving Ownership to the sender\n      user[msg.sender].balance       -= 0.01 ether;\n      user[msg.sender].lockedBalance += 0.01 ether;\n      record[_key].owner      = msg.sender;\n      record[_key].timestamp  = uint64(block.timestamp);\n      NewOwner(_key, msg.sender);\n      return true;\n    }\n    return false;\n  }\n\n  // revoke ucode\n  function revokeSLD(uint80 _key) public returns(bool){\n    if (!(record[_key].owner != msg.sender)     // check owner addr\n\t&& !(record[_key].timestamp == 0)    // check timestamp's value\n\t&& !(block.timestamp <= record[_key].timestamp + 1 years)) {     // if block.timestamp <= record[_key].timestamp + 90 days, this ID Space can't be revoked\n      // update database\n      record[_key].timestamp = 0;\n      user[msg.sender].lockedBalance -= 0.01 ether;\n      user[msg.sender].balance += 0.01 ether;\n      return true;\n    }\n    return false;\n  }\n\n  function changeOwner(uint80 _key, uint64 _validTime, address _to, uint8 _v, bytes32 _r, bytes32 _s) public returns(bool){\n    // how to use ecrecover: https://ethereum.stackexchange.com/questions/15364/ecrecover-from-geth-and-web3-eth-sign\n    bytes memory prefix = \"\\x19Ethereum Signed Message:\\n32\";\n    bytes32 prefixedHash = keccak256(prefix, sha3(_key, _validTime));\n    if (!(record[_key].timestamp == 0)     // check timestamp != 0,\n\t&& !(record[_key].owner != msg.sender)     // check owner\n\t&& !(ecrecover(prefixedHash, _v, _r, _s) != _to)  // verify receiver's sign\n\t&& !(block.timestamp > _validTime)     // check block timestamp\n\t&& !(msg.sender == _to) // check sender's addr and receiver's addr\n\t&& !(user[_to].balance < 0.01 ether)) {     // check receiver's balance\t\n      // update Database\n      record[_key].owner = _to;\n      user[msg.sender].lockedBalance -= 0.01 ether;\n      user[msg.sender].balance += 0.01 ether;\n      user[_to].balance -= 0.01 ether;\n      user[_to].lockedBalance += 0.01 ether;\n      NewOwner(_key, _to);\n      return true;\n    }\n    return false;\n  }\n  \n  // check key's owner\n  function getAddr(uint80 _key) public returns(address){\n    // keyHead: 0x01***b, keyEnd: [0x0000000000_00_000000000000, 0xffffffffff_00_000000000000]\n    return record[_key].owner;\n  }\n  // check owner's timestamp\n  function getTimestamp(uint80 _key) public returns(uint64){\n    // timestamp: e.g. 0x0011223344556677,\n    // if this ID Space is not root of SLD, TTL(Time To Live)\n    // if this ID Space is root of SLD, timestamp represents a time of getting this ID Space\n    return record[_key].timestamp;\n  }\n  function getPreOrderHash(address _key) public returns(uint256){\n    return uint256(user[_key].hash);\n  }\n  function getPreOrderBlockHeight(address _key) public returns(uint64){\n    return user[_key].blockHeight;\n  }\n}\n",
  "sourcePath": "/Users/HIROTSUGU/DigitalCurrency/TruffleProjects/ucodeRegistrar/contracts/ucodeRegistrar.sol",
  "compiler": {
    "name": "solc",
    "version": "0.4.23+commit.124ca40d.Emscripten.clang"
  },
  "schemaVersion": "2.0.0",
  "updatedAt": "2018-05-04T07:32:38.272Z"
}